S0170000626F6F746C6F616465725F6D696E692E73726563D6
S11370008AE08EBF8FEF8DBF112404C552096AD563
S11370103036A538BF40A39E81F3D7FB7CE3398289
S11370209B2FFF87348E4344C4DEE9CB547B9432D8
S1137030A6C2233DEE4C950B42FAC34E082EA16620
S113704028D924B2765BA2496D8BD12572F8F664F7
S113705086689816D4A45CCC5D65B6926C70485072
S1137060FDEDB9DA5E154657A78D9D8490D8AB0027
S11370708CBCD30AF7E45805B8B34506D02C1E8F50
S1137080CA3F0F02C1AFBD0301138A6B3A9111418C
S11370904F67DCEA97F2CFCEF0B4E67396AC742275
S11370A0E7AD3585E2F937E81C75DF6E47F11A71F3
S11370B01D29C5896FB7620EAA18BE1BFC563E4B2C
S11370C0C6D279209ADBC0FE78CD5AF41FDDA833EE
S11370D08807C731B11210592780EC5F60517FA92E
S11370E019B54A0D2DE57A9F93C99CEFA0E03B4D5D
S11370F0AE2AF5B0C8EBBB3C83539961172B047ED1
S1137100BA77D626E169146355210C7D637C777BBD
S1137110F26B6FC53001672BFED7AB76CA82C97D8F
S1137120FA5947F0ADD4A2AF9CA472C0B7FD932620
S1137130363FF7CC34A5E5F171D8311504C723C324
S11371401896059A071280E2EB27B27509832C1A68
S11371501B6E5AA0523BD6B329E32F8453D100EDC2
S113716020FCB15B6ACBBE394A4C58CFD0EFAAFBA6
S1137170434D338545F9027F503C9FA851A3408F6E
S1137180929D38F5BCB6DA2110FFF3D2CD0C13EC86
S11371905F974417C4A77E3D645D197360814FDC1B
S11371A0222A908846EEB814DE5E0BDBE0323A0AFF
S11371B04906245CC2D3AC629195E479E7C8376D83
S11371C08DD54EA96C56F4EA657AAE08BA78252EA8
S11371D01CA6B4C6E8DD741F4BBD8B8A703EB56631
S11371E04803F60E613557B986C11D9EE1F8981122
S11371F069D98E949B1E87E9CE5528DF8CA1890D11
S1137200BFE6426841992D0FB054BB1611E0A0E0CF
S1137210B1E0EEE4FFE702C005900D92A030B107A3
S1137220D9F787FF04C0880F9BE189270895880F49
S113723008959C0190E1915050F0D901A90FB11D1E
S1137240EC91F0E0E45FFE48E491EC93F4CF089510
S11372509C0190E1915050F0D901A90FB11DEC911E
S1137260F0E0E45FFF48E491EC93F4CF0895AC01BF
S113727090E1915068F0292F30E0FA01E20FF31FFA
S1137280DB01A20FB31F80812C9128272083F1CF2B
S11372900895CF93DF93EC01FA0190E19150D8F077
S11372A0292F30E0DB01A20FB31F5C91DF01A20F95
S11372B0B31F5C93DE01A20FB31F8C9158275C931C
S11372C0205F3F4FDB01A20FB31F8C91DF01A20FA0
S11372D0B31F8C93E3CFDF91CF910895FC0181819B
S11372E095819183918595839585918785878285FD
S11372F092819287828383819785938393859787ED
S11373009781938787838685968196878683089558
S1137310FC018181958591839185958795819187DC
S113732085838281928592838287838197819383E7
S11373309385978397859387878786819685968398
S113734086870895A0E0B0E0E7EAF9E387C5EC0199
S11373505C018FEFA81AB80A6E01E2E0CE0ED11CD0
S11373607E01F3E0EF0EF11C4E0180E1880E911CCA
S11373700881F5015080F6014080F7017080852D69
S11373808027672C6424162D18274BDF8127982F1C
S113739090279883842D852544DF912F9827F50124
S11373A0808198279083862D3CDF912F9827F601C2
S11373B0808198279083872D802733DF8127F701E9
S11373C01081812780832496F4E0AF0EB11C84E001
S11373D0C80ED11CE4E0EE0EF11CC815D90541F627
S11373E0CDB7DEB7E0E156C5A3E0B0E0E9EFF9E3DD
S11373F033C58C015C018FEFA81AB80A780192E0BA
S1137400E90EF11C4801E3E08E0E911C6801F0E1E5
S1137410CF0ED11CF8017080F5015080F701408037
S1137420F4016080252C2724362C3424232D222596
S1137430822F2B83F6DE982F872D84258927998325
S1137440F0DEEFDE2B8182278A83852D86259981C4
S11374508927E7DEE6DE2B812827822D2B83E1DED8
S11374609A818927982F9725F8019083842D852563
S1137470D8DE2B81922F9827F5018081982790835D
S1137480832D2B83CEDE9A819827F701808189276B
S11374908083862D8725C5DE2B812827F4018081F2
S11374A0822780830C5F1F4FF4E0AF0EB11C84E091
S11374B0E80EF11C94E0890E911C0C151D0509F0D1
S11374C0A9CF2396E2E1E4C4CF93DF93DC01EB017F
S11374D05D96EC915D97F0E0E45FFE48E49188816D
S11374E0E8278C91E827EC935E96EC915E97F0E0A8
S11374F0E45FFE48E49111968C911197E827119668
S1137500EC9311975F96EC915F97F0E0E45FFE488F
S1137510E49112968C911297E8271296EC931297A5
S11375205C96EC915C97F0E0E45FFE48E49113967E
S11375308C911397E8271396EC9313978881982FCF
S1137540991F9927991F2BE1929F902D1124880F41
S113755089278883FD0137969D012D5E3F4FBF012A
S113756063507109AF0147505109EB019881EA0159
S113757088818927EB0188836F5F7F4F4F5F5F4F5F
S1137580EB019881EA0188818927EB0188834F5FA9
S11375905F4FEF019A91BE01EA0188818927EB01CF
S11375A08883EF012497908188818927808334968A
S11375B0E217F307A1F61C96EC911C97F0E0E45F48
S11375C0FE48E49150968C915097E8275096EC939E
S11375D050971D96EC911D97F0E0E45FFE48E4910E
S11375E051968C915197E8275196EC9351971E969A
S11375F0EC911E97F0E0E45FFE48E49152968C9182
S11376005297E8275296EC9352971F96EC911F9746
S1137610F0E0E45FFE48E49153968C915397E82799
S11376205396EC935397FD017796AD014D5D5F4FF3
S1137630EF0123979F01275031098881D9019C913B
S11376409827988321962F5F3F4F8881D9019C9179
S113765098279883EF012F5F3F4F8A91D9019C911E
S113766098279883EF0124978081988198279083A5
S11376703496E417F507E1F6DF91CF9108950F935F
S11376801F93CF93DF93DC01FC017F969C012D5E59
S11376903F4F8F0103501109AF0147505109E801D1
S11376A09881EA0188818927E80188830F5F1F4F49
S11376B04F5F5F4FE8019881EA0188818927E801DB
S11376C088834F5F5F4FEF019A918E01EA018881B1
S11376D08927E8018883EF0124979081888189278D
S11376E08083FE01C217D307A1F61C96EC911C9768
S11376F0F0E0E45FFE48E49150968C915097E827BF
S11377005096EC9350971D96EC911D97F0E0E45F32
S1137710FE48E49151968C915197E8275196EC9349
S113772051971E96EC911E97F0E0E45FFE48E491B9
S113773052968C915297E8275296EC9352971F9643
S1137740EC911F97F0E0E45FFE48E49153968C912E
S11377505397E8275396EC9353978D01045F1F4F7B
S1137760FD013F969F0127503109E8019881E90105
S113777088818927E80188832B5F3F4FAF014650FA
S11377805109E9019881EA0188818927E9018883FF
S11377904F5F5F4FEF013A91CE01EA012881232721
S11377A0EC0128839F01245031099081E9018881EB
S11377B08927808304501109F9010A171B0791F6E0
S11377C0FB019081892F869590FD02C0E0E001C005
S11377D0EDE89E2F9827EB0198835D968C915D9739
S11377E0E82FF0E0E45FFE488491E92FE8278C91CC
S11377F0E827EC935E96EC915E97F0E0E45FFE4838
S1137800E49111968C911197E8271196EC931197B6
S11378105F96EC915F97F0E0E45FFE48E491129686
S11378208C911297E8271296EC9312975C96EC9140
S11378305C97F0E0E45FFE48E49113968C91139713
S1137840E8271396EC93DF91CF911F910F91089540
S1137850CF92DF92FF920F931F93CF93DF931F92E8
S1137860CDB7DEB721E029836B01FC01E05CFF4F5B
S11378709C01205A3F4F0E2FFF2ED6014D916D01D2
S11378804193CF018197DC014C93E217F307A9F7E9
S113789018E0115039F0BE016F5F7F4F802F9F2D8C
S11378A013DEF7CF0F90DF91CF911F910F91FF90CF
S11378B0DF90CF900895AF92BF92DF92EF92FF9244
S11378C00F931F93CF93DF931F92CDB7DEB77C0145
S11378D08B01BC01605E7F4FAC01C801DADC81E042
S11378E08983DD24D394570180E1A80EB11CC8011B
S11378F0A0DCC801F3DCC80125DDD0FE02C0B5015F
S113790006C0BE016F5F7F4FC701DEDDB701C8014E
S1137910AEDCD3948EE0D812EACFC8018ADCC80169
S1137920DDDCBE016F5F7F4FC701CEDDB701C8014B
S11379309EDC0F90DF91CF911F910F91FF90EF90FC
S1137940DF90BF90AF900895AF92BF92DF92EF9215
S1137950FF920F931F93CF93DF931F92CDB7DEB7A0
S11379607C018B01BC01605C7F4FAC01C80191DCE0
S1137970C801CEDCC8016CDC80E889838EE0D82E97
S1137980570180E1A80EB11CDA94DD2099F0D0FEF5
S113799007C0BE016F5F7F4FC70171DEB50101C033
S11379A0B701C80164DCC8011FDDC801B1DCC8012E
S11379B04FDCEACFB701C8015ADC0F90DF91CF91B9
S11379C01F910F91FF90EF90DF90BF90AF900895BB
S11379D0DC01FB01415028F081919C9189278D9312
S11379E0F9CF0895A1E0B0E0E7EFFCE345C21982C6
S11379F0282FDB01FC018E2F821B841738F4998118
S1137A0081913D918327892B8983F5CF89812196A3
S1137A10E2E04EC2A8E4B1E0EFE0FDE324C280E07E
S1137A2090E076D28C01F894A89584B7877F84BFC0
S1137A30809160008861809360001092600099E0FA
S1137A40E0E0F0E090935700E491EF3FA9F4E3E025
S1137A50F0E090935700E491E83D71F4E2E0F0E047
S1137A6090935700E491E83F39F4E1E0F0E090931B
S1137A70570094919C3F09F0FFCF82E090E040D200
S1137A808B3A11F00C9400000D3A8EED180719F49E
S1137A900C94000004C0003D104D09F0FFCF81E0BC
S1137AA08093D70065D1A5D1519A599A579A5F9A74
S1137AB080E29EE400000197E9F7599883E2ABD194
S1137AC082E0A9D1599A38D18111FFCF60ED7AECC7
S1137AD080E090E039D2F12C6E01EFECCE1AEEEF9B
S1137AE0DE0AAA24A394BA2CAC0EBD1EF0E1AF0E9C
S1137AF0B11C44E050E061E470E0CE018B5B9E4F2A
S1137B00EFD140E250E063E070E0CE018F519F4F2F
S1137B10E7D180E1F60111928A95E9F7BE016F5130
S1137B207F4FCE018F579F4F93DE00E418E0912CD6
S1137B3080E1E82E40E150E0B801CE018F5D9E4F18
S1137B4033D1003CFFE81F07B1F4C45DDE4F8881E8
S1137B509981AA81BB81CC52D140CF5BDE4F88830F
S1137B609983AA83BB83C154D140C05DDE4F988002
S1137B70C053D1402DC0003D8FE8180748F1003DA7
S1137B809FEF190708F09AC0D801A05DBF48AF77EE
S1137B90BB27E1E0F0E0EC0FFD1FAE0FBF1FFE01BD
S1137BA0EF5DFE4F8E2D01900D928A95E1F7C8018D
S1137BB0805C9F488F779927892B51F4F1E0FF125D
S1137BC007C0BE016F5F7F4FC80180549049D8D170
S1137BD040E1BE016F5D7E4FC601FADEB601CE0103
S1137BE08F579F4F68DE005F1F4F003F8FEF1807CE
S1137BF009F0A0CF40E150E060EF7FEFCE018F5D50
S1137C009E4FD2D040E1B601CE018F5D9E4FEADE99
S1137C10811137C044E050E0BE016F5B7E4FCE015E
S1137C208B5B9E4F50D1181619065CF1F11003C0FE
S1137C30FF24F3945ECF9920A1F0BE016F5F7E4FC5
S1137C40CE018F579F4F80DEB501CE018F579F4FD6
S1137C507BDE40E250E063E070E0CE018F5F9E4F38
S1137C605CD16DEA7EED80E090E06ED10C94000072
S1137C7091E0F912DDCF80E090E0C85BDE4FEBE0ED
S1137C800EC1F1101AC081E076D068EE81E490E074
S1137C904DD162E982E490E049D16FE083E490E061
S1137CA045D16CE384E490E041D16DEA7EED80E05F
S1137CB090E04AD10C940000BBCFFFCFFE01EF5DF2
S1137CC0FE4FA1E0B1E0AC0FBD1FA00FB11FD096D5
S1137CD08E2D01900D928A95E1F77ACFA0E0B0E065
S1137CE0E3E7FEE3C3C08C01EB017A012C986C013D
S1137CF084E0C80ED11CF80180818DD0F8018193F5
S1137D008F01EC15FD05B9F78E010E0D1F1DC0176F
S1137D10D10721F088817FD08993F9CF2C9ACDB7F0
S1137D20DEB7E8E0BFC02C9887ED75D080E073D053
S1137D3087FFFACF2C9A0895A4E0B0E0E1EAFEE3CD
S1137D409BC08FE9898340E050E0BE016F5F7F4FA5
S1137D50CB01C4DF8A818F3139F481E09B81943275
S1137D6009F480E0819501C08FEF2496E2E0A0C081
S1137D70249A2C9A0895A4E0B0E0E0ECFEE37CC0E1
S1137D8020E1829FC00111242CE729839A838B83ED
S1137D901C8240E050E0BE016F5F7F4FCB019EDF4D
S1137DA0C2DF2496E2E084C0A4E0B0E0E9EDFEE3A3
S1137DB05FC08C01CB017A0168E071E039D09C018D
S1137DC0CB01982F8827990F282B392B83E089839F
S1137DD0FB01EE0FEF2FEE1FFF0BF195EA833B83C0
S1137DE02C83A701B801CE01019678DF2496E6E042
S1137DF05BC0ECECF0E0118210828AB188628AB92F
S1137E0052985A9880EC8093CA0088E18093C90004
S1137E101182108208959091C80095FFFCCF809341
S1137E20CE008091C80087FFFCCF8091CE000895DA
S1137E30AA1BBB1B51E107C0AA1FBB1FA617B7078C
S1137E4010F0A61BB70B881F991F5A95A9F78095A8
S1137E509095BC01CD0108952F923F924F925F926D
S1137E606F927F928F929F92AF92BF92CF92DF9246
S1137E70EF92FF920F931F93CF93DF93CDB7DEB7AB
S1137E80CA1BDB0B0FB6F894DEBF0FBECDBF09943F
S1137E902A88398848885F846E847D848C849B8496
S1137EA0AA84B984C884DF80EE80FD800C811B81A4
S1137EB0AA81B981CE0FD11D0FB6F894DEBF0FBED3
S1137EC0CDBFED010895FB01DC0104C08D9101904B
S1137ED0801921F441505040C8F7881B990B08952C
S1137EE0DC01CB01FC01F999FECF06C0F2BDE1BD76
S1137EF0F89A319600B40D9241505040B8F7089565
S1137F00F999FECF92BD81BDF89A992780B508955D
S1137F10A8E1B0E042E050E0E5CFDC01CB0102C0D3
S1137F202D9105D041505040D8F70895262FF99946
S1137F30FECF1FBA92BD81BD20BD0FB6F894FA9A48
S1117F40F99A0FBE01960895F1DF272FF0CFB6
S1137F80CF93DF9380382FE7920708F036C09C0127
S1137F902F773327232B09F030C0AFB7F89423E0B1
S1137FA0FC0120935700E89507B600FCFDCF40E0A4
S1137FB050E0B1E0FB0120816E5F7F4FFA01E80FD2
S1137FC0F91FEB012197C88130E03C2B0901B093E4
S1137FD05700E89511244E5F5F4F4038510551F723
S1137FE025E0FC0120935700E89507B600FCFDCF7F
S1137FF081E180935700E895AFBFDF91CF91089559
S90370008C
