S01200004D6F6F6C7469706173732E73726563E7
S1130000FBC0000016C1000014C1000012C10000B2
S113001010C100000EC100000CC100000AC10000A4
S113002008C1000006C100000C940B096FC7000052
S11300300FC30000FEC00000FCC00000FAC00000B6
S1130040F8C0000009C20000F4C00000F2C00000C3
S1130050F0C00000EEC00000ECC00000EAC00000E8
S1130060E8C00000E6C00000E4C00000E2C00000F8
S1130070E0C00000DEC00000DCC00000DAC0000008
S1130080D8C00000D6C00000D4C00000D2C0000018
S1130090D0C00000CEC00000CCC00000CAC0000028
S11300A0C8C00000C6C00000C4C0000001AE02D534
S11300B0F002A81F02D300014002AD8E02D8050150
S11300C0A101C802200002DA1205913F3F3F3F021E
S11300D0818002D9C202DB0801A401A616034D00E7
S11300E06F006F006C0074006900700061007300A1
S11300F073000000060353004500000004030904D4
S113010005010906A10175019508050719E029E70C
S11301101500250181029501750881039505750176
S113012005081901290591029501750391039506A6
S11301307508150025FF0507190029E78100C00689
S113014031FF0A7400A1017508150026FF009540CF
S113015009018102954009029102C009024200028C
S1130160010080320904000002030000000921118B
S1130170010001221C00070502034000010705815C
S113018003400001090401000103010100092111D8
S1130190010001223F00070583030800011201004A
S11301A00200000020D016A0090001010200010194
S11301B0C13601C03601C10600000100009D0112D4
S11301C0000200005B0142002200003F011C0021EC
S11301D000006D01090022010000013F002101001F
S11301E08D010900030000FC000401030904F4006C
S11301F00602030904DC001611241FBECFEFDAE067
S1130200DEBFCDBF11E0A0E0B1E0E4EEFCE102C04E
S113021005900D92A236B107D9F724E0A2E6B1E029
S113022001C01D92A93DB207E1F70E9475090C9423
S1130230700EE6CE9091C80095FFFCCF8093CE005F
S11302408091C80087FFFCCF8091CE0008952C9840
S113025087EDF0DF80E0EEDF87FFFACF2C9A089578
S1130260A0E0B0E0E6E3F1E00C943C0E8C01EB017D
S11302707A012C986C0184E0C80ED11CF8018081AD
S1130280D9DFF80181938F01CE16DF06B9F78E010D
S11302900E0D1F1DC017D10721F08881CBDF899374
S11302A0F9CF2C9ACDB7DEB7E8E00C94580EA4E051
S11302B0B0E0EDE5F1E00C94420E23E82983880FC9
S11302C0991F9A838B831C8240E050E0BE016F5FCC
S11302D07F4FCB01C5DFBBDF2496E2E00C945E0EBA
S11302E05F985C98A7DF5F9A08950F931F93CF934D
S11302F08C015F985C98C62FCC2331F0F801819172
S11303008F0198DFC150F8CF5F9ACF911F910F9161
S113031008958091BC0087FFFCCF0895CF93DF93AD
S1130320C82FD62F84EA8093BC00F3DF8091B900F4
S1130330887F883029F084E98093BC008FEF20C047
S1130340C093BB00C4E8C093BC00E3DF8091B90054
S1130350887F883129F084E98093BC008EEF10C037
S1130360D093BB00C093BC00D4DF8091B900887FD8
S1130370883211F480E004C084E98093BC008DEFDE
S1130380DF91CF9108951F93CF93DF93C82FD0E0CF
S1130390CC0FDD1F60E08C2F8067C0DF81111DC092
S11303A084EA8093BC00B5DF8091B900887F8031F6
S11303B089F4C167C093BB00C4E8C093BC00A9DF43
S11303C08091B900887F803429F4C093BC00A1DFF8
S11303D01091BB0084E98093BC00812FDF91CF9101
S11303E01F910895CF93C42F99DF811114C0C09336
S11303F0BB0084E88093BC008CDF8091B900887FC7
S1130400883229F484E98093BC0080E004C084E944
S11304108093BC008DEFCF91089590E0FC01E251F0
S1130420FE4F1082FC01EB51FE4F880F991F408153
S113043061E08067D7CF90E060956770FC01EB5175
S1130440FE4F6083FC01E251FE4F4081462B880F32
S1130450991F61E08067C6CF1F920F920FB60F926B
S113046011242F933F934F935F938F939F93EF9315
S1130470FF93809195019091960101969093960136
S11304808093950180E090E0823131F420919501D0
S113049030919601232BB1F4FC01EE0FFF1FE80FFE
S11304A0F91FEE5EFD4F20813181232B59F020810D
S11304B03181A901415051095183408321303105D3
S11304C009F41282019683319105F1F6FF91EF91BF
S11304D09F918F915F914F913F912F910F900FBEFC
S11304E00F901F901895A4E0B0E0E9E7F2E00C94B7
S11304F0420E9C01CB01FA0168E071E00E940B0EF0
S1130500AB01542F4427550F842B952B43E049838B
S1130510660F672F661F770B71956A839B838C83A5
S1130520AF01B901CE0101969BDE2496E2E00C9462
S11305305E0EA2E0B0E0EFE9F2E00C943E0E7B0127
S1130540082F10E042E050E060E478E0CE0101962C
S1130550CADF89819A81980120583F4F28173907AB
S113056000F50196F1F0B8016F557B4F660F771FC8
S113057042E050E0C701B7DFF70160817181605C40
S1130580774F7183608342E050E0CE010196ABDF88
S1130590F7018081918102969183808389819A8178
S11305A002C08FEF9FEF2296E6E00C945A0ECF9391
S11305B0DF93EC012D813E818B819C8128173907C3
S11305C0E0F42F5F3F4F3E832D83898D803168F0A7
S11305D06F81788540E150E0CE01099684DF8F81F8
S11305E09885409698878F83198E898D91E0980F0E
S11305F0998FC80FD11D898501C080E0DF91CF910B
S1130600089590E0FC01EE0FFF1F8E0F9F1FFC0169
S1130610EE5EFD4F808191818617970759F08FB761
S1130620F89471836083672B11F4128202C091E005
S113063092838FBF0895BC016F5F7F4F85E0E1DF38
S1130640809123028111FCCF81E0809323020895DD
S11306501F920F920FB60F921124CF92DF92EF9256
S1130660FF920F931F932F933F934F935F936F9337
S11306707F938F939F93AF93BF93CF93DF93EF9326
S1130680FF93E091940186B5F0E0EC58FE4F80832F
S1130690809194018F5F80939401809194018032C2
S11306A008F45EC010929401E0917301F0E0C4E795
S11306B0D1E004E911E020E030E0A9018991280F9C
S11306C0311D411D511DA1E0B4E00E94E60D6B01F6
S11306D07C01A6E0F694E794D794C794AA95D1F741
S11306E09B01AC012C253D254E255F250C171D07CC
S11306F029F7A9E0B0E00E94E60D8B019C014BE0D4
S113070036952795179507954A95D1F7A90198012C
S11307102627372748275927A1E0B0E80E94E60D8D
S1130720EE0FFF1FEE0FFF1FE756FE4F608371832E
S1130730828393838091730190E001968F7099274F
S1130740809373018091DA01803129F480917301DF
S11307508093D90105C08091DA018F5F8093DA011B
S1130760FF91EF91DF91CF91BF91AF919F918F91C5
S11307707F916F915F914F913F912F911F910F91B5
S1130780FF90EF90DF90CF900F900FBE0F901F90CF
S11307901895A8E0B0E0EFECF3E00C94420E9091D1
S11307A002019F3F11F480E03FC08032E0F390E00B
S11307B04C9760914C0270914D02680F791F41E093
S11307C050E0CE0108968FDE88858F3FD1F0688592
S11307D027E0629FB00111246C5F7E4F80914C0230
S11307E090914D02680F791F47E050E0CE010196C9
S11307F07ADE8E819F81019699F4898186958F5F37
S113080013C060914C0270914D026D5D7F4F41E0C9
S113081050E0CE01089667DE88858F3FC1F6C3CFCE
S11308208A818F5F9C81890F2896E2E00C945E0E8A
S1130830A4E1B0E0EEE1F4E00C94320E5A019091A0
S1130840D304DA012C91192F120F1150160F412ED7
S113085046944694469470E0690F711D1B0153E061
S1130860359427945A95E1F72C8610951770912F9B
S113087091959770998711966D917C911297782E26
S11308809FEF960F980F9D8787FF22C0482F4195B1
S113089050E06417750708F401C130E0295F3F4F49
S11308A043E0369527954A95E1F7992781950CF40D
S11308B09095289F7001299FF00C389FF00C11240B
S11308C0B1E0EB1AF10818F0C50171DEF9CF712C13
S11308D088E0E4E0F1E0DE01119601900D928A9542
S11308E0E1F7842D65E00E94FF0D40E8949F90019C
S11308F011243F872E8700E0842D90E0998B888B0C
S113090088E090E0DC01E985AE1BB109BB8BAA8BC2
S1130910F8EFF10FFC8B21E030E02C0F3D1F210F8D
S1130920311D3B872A873D85371508F4B7C077FC0E
S1130930B5C0D5016C90542CEE84FF84872C912C87
S1130940852D052C000C990B821593050CF4A4C07D
S1130950E889F9898E179F07A1F5C50128DEFC8572
S11309604F1211C0F401EE0DFF1DED5AFD4FAA8583
S1130970BB85A60DB11D9C919095AA85BB852C9134
S1130980922B208109C0F401EE0DFF1DED5AFD4F9D
S11309902081AA85BB859C9192239083F401EE0D5E
S11309A0FF1DED5AFD4F282F30E0012E02C0359572
S11309B027950A94E2F79081292B2083BC896B0E3A
S11309C060C02816390609F03FC0111109C0C501DD
S11309D0EEDDF701ED5AFD4FE80DF91D808351C09E
S11309E0862D90E094012E0D3F1DF901ED5AFD4F27
S11309F06F01E1E0F0E0EC0FFD1FE80FF91F20812B
S1130A002095D6013C9123232C93EA89FB89E8178E
S1130A10F9077CF4C501CBDD282F30E0012E02C09C
S1130A20359527950A94E2F7D6019C91292B2C93AE
S1130A3001C0802F098401C0000F0A94EAF7F6016F
S1130A409081092B00831DC0C501B1DD97012D5A8A
S1130A503D4FF901E80DF91D111102C080830FC04B
S1130A60098401C0000F0A94EAF7282F30E0012E10
S1130A7002C0359527950A94E2F7202B2083F8EFDE
S1130A806F0E20E8E21AF108F7FE03C0E12C92E0B1
S1130A90F92E5A94082F54CF739445CF6496E2E10B
S1130AA00C944E0EA6E0B0E0E8E5F5E00C943C0EA4
S1130AB081E2898384E08A8383E88B83109198019F
S1130AC016951695169582E28C831D831E8380915C
S1130AD0D30490E0079668E270E00E941F0E7C0148
S1130AE083E0F594E7948A95E1F7F694FE2CEE24DE
S1130AF0F794E79404E020E8C22E22E0D22E63E0CB
S1130B00CE010196F2DB63E0CE010496EEDBF70141
S1130B10ED5AFD4F8091C80085FFFCCF1092CE00A6
S1130B208091C80087FFFCCF5F985C9ACF01805802
S1130B309F4FE817F90771F021913091C80037FFF2
S1130B40FCCF3091CE003091C80035FFFCCF20930C
S1130B50CE00EFCF8091C80087FFFCCF8091CE00FC
S1130B605F9AC70180589F4FB6010E940B0E7C010B
S1130B701F5F17701D831E83015009F0C0CF269696
S1130B80E8E00C94580E8091E80080FFFCCF0895B3
S1130B90CF92DF92FF920F931F93CF93DF93CDB742
S1130BA0DEB760970FB6F894DEBF0FBECDBF90914D
S1130BB0D304282F30E0290F311DA90193E0559566
S1130BC047959A95E1F7542F260F311D215031098D
S1130BD073E0359527957A95E1F798E0E4E4F1E040
S1130BE0DE01199601900D929A95E1F76150680F14
S1130BF0677098E0ECE4F1E0DE01119601900D924B
S1130C009A95E1F78770E5E0FE2E09E010E00C0FFD
S1130C101D1F060F111DCC24C394D12CCC0EDD1E38
S1130C20C80ED11C241708F1842F6F2DE8D780E853
S1130C30989FF0011124ED5AFD4F90E0541311C018
S1130C40D6018C918095251304C0D8013C91309530
S1130C50832B3081832381939F5F903879F74F5F93
S1130C60E1CF80E02413F5CFF0CF60960FB6F8946F
S1130C70DEBF0FBECDBFDF91CF911F910F91FF90CB
S1130C80DF90CF900895A2E2B0E0E8E4F6E0F0C788
S1130C90E82E8B01D0900301F12CF801EF0DF11D2A
S1130CA08081882329F08D3019F073DDF394F5CF1A
S1130CB01092D804E092D704C02E780107E020E116
S1130CC0B22E8E2C8C18F70111917F01112309F497
S1130CD09AC0812F5EDDA090D8042A2D30E0280F21
S1130CE0311D8091030190E0821793070CF48BC0AF
S1130CF09090D70420914E02892D90E0820F911D8F
S1130D0081970CF080C0809102018F3F11F410E0B4
S1130D1074C01032E0F3612F70E06C5171092091BE
S1130D204C0230914D02620F731F41E050E0CE013E
S1130D308296D9DB8AA18F3FD9F08AA1089FC0018E
S1130D4011248C5F9E4F60914C0270914D02680F8C
S1130D50791F47E050E0CE014B96C5DBE8A1F9A12D
S1130D60EF3F8FEFF80799F41E8E1B8D169542C046
S1130D7060914C0270914D026D5D7F4F41E050E0F7
S1130D80CE018296B0DB8AA18F3FB9F6C0CF1C8D0D
S1130D902D8D8E8D6F8D690D412F50E090915102F4
S1130DA0099FE00DF11D1124EC5FFE4FA0914C0250
S1130DB0B0914D02EA0FFB1FF987E8875B834A83F2
S1130DC029831F821E82BA8E30E0295F3F4F93E051
S1130DD0369527959A95E1F7249FF001259FF00D0C
S1130DE0349FF00D1124FD83EC83AE014F5F5F4F00
S1130DF08A0D1EDD8E8D8F5F180F8091D804180F19
S1130E001093D8045ECF8091520281114BDED092B0
S1130E100301882DA296ECE047C7EF92FF920F934F
S1130E201F93CF93DF93182FF62EE72ED42F88230A
S1130E3011F0CEE301C0C0E4CD1BC7FD3DC08091DD
S1130E404B028823C9F10FB7F89462E370E085E0A0
S1130E50D8DB81E08093E90091E08091E80085FD92
S1130E6009C00FBF8091230281111DC081E08093CE
S1130E70230223C0112321F0D093F1001093F10039
S1130E80EF2DFE2DD15020F081918093F100FACF07
S1130E90C15018F01092F100FBCF8AE38093E80070
S1130EA00FBF80E00AC080914B02882329F00FB75E
S1130EB0F8949093E900D1CF8FEFCDB7DEB7E6E099
S1130EC0F9C60F931F93CF93DF93D82FC62F8A01B0
S1130ED0CE3358F04EE3B8018D2F9FDF811110C03F
S1130EE0025C1F4FCE53A1F70CC04C2FB8018D2FBD
S1130EF094DF91E0811101C090E0892F819501C0B8
S1130F008FEFDF91CF911F910F9108951F920F9250
S1130F100FB60F9211241F932F933F934F935F9318
S1130F206F937F938F939F93AF93BF93CF93DF93ED
S1130F30EF93FF931092E9008091E80083FF54C17E
S1130F401091F1008091F1002091F1009091F10055
S1130F5030E0392BC091F1009091F100D0E0D92B11
S1130F604091F1005091F10092EB9093E8008630AB
S1130F7009F049C089EB91E0FC0165917491261751
S1130F803707E1F4FC01329665917491C617D707CF
S1130F90A9F4FC01349665917491FC013696849110
S1130FA0242F30E0352B2F3F310519F010F02FEFAF
S1130FB030E0281708F4822F3EEF0DC0079661E059
S1130FC0883F9607C9F610C1690F711D891B3093BC
S1130FD0E8008823A9F09091E800292F2570D9F31F
S1130FE092FD05C1982F813208F090E2FB01292F70
S1130FF0222351F344914093F10021503196F8CFCC
S1131000903249F3F4C0853069F42F772093E300DC
S11310108EEF8093E800B7DD8091E30080688093D1
S1131020E300E5C0893029F5111163C020934B0218
S11310308EEF8093E80021E08FEA91E02093E900AD
S1131040AC014F5F5F4FFC0134913093EB003323CD
S113105051F0FA0144914093EC003196E4910396E7
S1131060E093ED0001C0CA012F5F253039F78EE10E
S11310703BC0883031F41038E1F585DD80914B02B6
S113108091C0811111C07FDD123851F4C093E90081
S11310908091EB0085FB882780F91092E90001C05C
S11310A080E08093F10070C0982F9D7F913009F506
S11310B01230F9F4232B09F097C0CF779FEF9C0FE0
S11310C0943008F091C09EEF9093E800C093E9003B
S11310D0833009F489C089E18093EB0081E090E0DA
S11310E001C0880FCA95EAF78093EA001092EA00DB
S11310F07EC0209799F5113AF9F4813009F074C053
S113110080E43EEF9091E800292F2570D9F392FDF9
S11311106EC0982F813208F090E2292F222321F00B
S11311201092F1002150FACF891B3093E80081110D
S1131130E9CF903239F35BC0113209F055C08930E0
S113114009F052C09BEF8091E80082FD9093E80083
S11311508091E80086FFF7CF16DD42C0219709F0A1
S113116043C0113A11F5813091F40DDD1092F10074
S11311701092F1001092F1001092F1001092F1001F
S11311801092F1001092F1001092F10029C0823007
S113119021F4F9DC8091010105C0833029F5F3DCE9
S11311A0809100018093F1001BC01132E9F4893071
S11311B061F48091E80082FFFCCF8091F10080937C
S11311C0D6048BEF8093E8000BC08A3029F4309367
S11311D001011092D50404C08B3031F42093000136
S11311E08EEF8093E80003C081E28093EB00FF91CF
S11311F0EF91DF91CF91BF91AF919F918F917F91AB
S11312006F915F914F913F912F911F910F900FBE5E
S11312100F901F9018951F920F920FB60F921124E2
S11312202F933F934F935F936F937F938F939F93EA
S1131230AF93BF93EF93FF938091E1001092E1008D
S113124083FF0FC01092E90091E09093EB0010929D
S1131250EC0092E29093ED0098E09093F0001092ED
S11312604B0282FF31C080914B02882369F1809147
S113127024029091250268EE7DEF86E0C2D9809128
S11312800101882309F18091D4048F5F8093D404F1
S11312908370D1F483E08093E9008091E80085FFB6
S11312A013C08091D5048F5F8093D5049091010180
S11312B089130AC087E01092F1008150E1F78AE3B4
S11312C08093E8001092D504FF91EF91BF91AF9104
S11312D09F918F917F916F915F914F913F912F914A
S11312E00F900FBE0F901F901895A9E6B0E0EAE7A3
S11312F0F9E0B8C4209A87E0809389008FEC80934A
S11313008800109280008AE08093810080916F00B1
S1131310826080936F00789482E890E08CD981E0B9
S11313208093D70080EA8093D80082E189BD09B414
S113133000FEFDCF80E98093D8001092E000109267
S11313404B028CE08093E20082E890E074D9589AD2
S1131350599A509A519A82E18093B80084E8809314
S1131360BC0014BC81E085BD9FB7F89484B7877F27
S113137084BF8091600088618093600080E48093E2
S113138060009FBF579A5F9A549A569A5E9882E873
S113139090E051D95E9A8AE090E04DD96A9A729AA7
S11313A0249A2C9A1092CD001092CC008AB18862B3
S11313B08AB952985A9880EC8093CA0088E1809345
S11313C0C90081E090E09093CD008093CC0089E047
S11313D0E7EFF1E0DF011D928A95E9F749E050E07B
S11313E060E470E08EEE91E074D449E050E067E090
S11313F070E085EE91E06DD46E98769A86988E9A18
S113140080B3836380BB81B3836381BBECE1F1E090
S11314104CE051E008E211E06CE271E0E190F190FF
S1131420D7019C91DB012D91BD01822F80959823DA
S1131430D7019C93DA01ED90FD90AD01D7018C9119
S1131440822B8C930E171F0749F700E010E0C801A8
S1131450880F991FB82FB067FB2E48E863E08B2FE5
S11314600E94F20147E061E08F2D0E94F201802F7B
S11314700E94C301802F0E940D0261E0802F0E9410
S11314801B020F5F1F4F0630110509F788988091E2
S11314904B028823E1F38FE9898340E050E0BE01E9
S11314A06F5F7F4FCB010E9430018A818F3139F405
S11314B081E09B81953209F480E0819501C08FEF32
S11314C08111FECF1092D3046CE472E081E031D834
S11314D00297A1F481E08093020160914C02709123
S11314E04D0244E050E08EE492E00E947302809149
S11314F05002813019F08FEF8093020110E091E0E7
S1131500910FE12FF0E0E455FF4F6491DE01119655
S1131510E92F862F815048F021E02E0FF0E0E455AA
S1131520FF4FE491ED93E22FF5CF192F160FCE0163
S113153001960E947501103310F38BE590E03ED3C1
S11315408E010F5B1F4F91E8F8019083818362E065
S1131550C8010E94750180E892E0E3E5F2E0DF0152
S11315609C011D9221503040E1F780E28093980164
S113157099DA1092980196DA729882E890E05BD832
S11315808FEA0E947001BE016F597F4F80E00E9474
S11315909902019709F060C0A3966EAD7FADA39741
S11315A047E050E0C8010E947302D8014D915C915C
S11315B0119712968C91A3962EAD3FADA397295FF8
S11315C03F4F398728875B834A8389831F821E8222
S11315D090E19A8F90E0079623E0969587952A9557
S11315E0E1F7849F9001859F300D949F300D112465
S11315F03D832C83AE014F5F5F4F60E080E018D9DC
S1131600F0909801F80182818F0D8F73F82E8093EA
S1131610980148DA90919701EE24E394E90EE09260
S113162097019F73F91649F085E090E004D88E2D58
S11316308F7380640E947001EDCFF0929701209126
S1131640D304D80112968C9190E0820F911D68E228
S113165070E0F5D28093D30481E08093520264EF6A
S113166071E082E00E940103289AB2E09B2EF80107
S1131670B096AA96FFAFEEAFAA9788248A94809179
S11316804B02882309F4ABC1FFB6F89464E070E020
S113169085E00E9401039092E9008091E80085FDB5
S11316A009C0FFBE80912302811180C281E0809332
S11316B0230295C1FE0131968091F1008193E017D8
S11316C0F107D1F78BE68093E800FFBEA2961FAE28
S11316D0A297BA80F6E8BF1609F46FC1FB15F8F0BB
S11316E022E8B21609F41BC12B1588F030E8B316B2
S11316F009F4BAC081E8B81272C18091DA01880F86
S1131700880FD8018C93A80161E081E867C194E84F
S1131710B91609F43AC19B1508F017C142C1AEEAE3
S1131720BA1681F1AB1588F0B2EABB16E9F0ECEA1F
S1131730BE1609F4ADC0F1EABF1251C146E0BE01C4
S11317406F5F7F4F80E069DB4AC120EBB21609F47A
S113175074C0B21640F139EBB31241C1D8011C92E6
S1131760A80161E089EB3AC18BE0E6E5F1E0DE0136
S1131770AF5BBF4F01900D928A95E1F7A8016BE032
S113178082EA2CC1E8E0F0E0F093E401E093E301A5
S113179081E0A2968FAFA2978093E2011092E101BB
S11317A01092E00116C18091E201882309F459C026
S11317B0E090E301F090E401FFEFEF16F10411F083
S11317C008F04FC0498150E08091E0019091E1011F
S11317D06A01C80ED91E29E0C21621E0D20608F01B
S11317E040C024E8D8012C9311961C9211971296AC
S11317F09C93129713968C93BE016D5F7F4FC80123
S11318000E9430010E942701D092E101C092E001C0
S1131810B8E0CB16B1E0DB0609F0B2C0C7010E9404
S113182057011092E1011092E001EFEFEE1AFE0A67
S1131830F092E401E092E301A3C08091E2018130DF
S113184061F48091E0019091E101892B31F0809164
S1131850E3019091E4010E94570181E0A2968FAFC9
S1131860A2971092E201B5C089E0E7EFF1E0DE0152
S1131870AF5BBF4F01900D928A95E1F789E0A7EF26
S1131880B1E01D928A95E9F7A80169E080E8A6C055
S1131890D8018091DF0181112CC08091DA01882365
S11318A0E1F39FB7F894E091D90124E0E29FF001BD
S11318B01124E756FE4F408151816281738120914A
S11318C0D90130E02F5F3F4F2F7033272093D90188
S11318D08091DA0181508093DA019FBF4093DB014C
S11318E05093DC016093DD017093DE0134E03093AA
S11318F0DF01E091DF01E150E093DF01F0E0E55228
S1131900FE4F80818D93AA968EAD9FADAA978A17BC
S11319109B0709F0BECFA80160E28CEA5FC0FB80A0
S1131920B8E0FB1641F08F2D0E940D0261E08F2D6F
S11319300E941B0204C081B3836181BB8898EF2D90
S1131940F0E0E75FFD4F10821BC0FB80E8E0FE166D
S113195041F08F2D0E940D0264E08F2D0E941B0226
S113196004C081B3836181BB8C988F2D90E0FC010E
S1131970E050FE4F8082FC01E75FFD4F23E02083AF
S113198081E0A2968FAFA29724C081E0A2968FAF88
S1131990A2976AE080E0FCD8BE016D5F7F4F80E0D3
S11319A017C081E0A2968FAFA2976BE08AE0F0D8CF
S11319B0BE016D5F7F4F8AE00BC081E0A2968FAFBE
S11319C0A2976BE085E1E4D8BE016D5F7F4F85E1AE
S11319D05AD9AE014F595F4F61E08B2D72DA809175
S11319E01A02882359F027EF31E0A9E0AA2EA2E0D9
S11319F0BA2ED50189E090E041E02BC081E08093CC
S1131A001A0264EF71E082E00E940103E9E0CE2E45
S1131A10E2E0DE2EF0E0EF2EF2E0FF2EB12CD60154
S1131A208D916D018D7F813061F4F7018081882370
S1131A3019F0108260E002C0808264E08B2D0E9465
S1131A401B02B394BFEFEB1AFB0AE6E0BE12E7CF2A
S1131A50CACFFC01EE0FFF1FE80FF91FEE5EFD4F2A
S1131A605281511106C042835C91523011F4F90144
S1131A70408301962F5F3F4F11968F30910549F7B0
S1131A8024E331E0A7963FAF2EAFA7973EEE432E57
S1131A9031E0532E45EE242E41E0342E50E0652EE5
S1131AA052E0752E8CE291E0A5969FAF8EAFA5977C
S1131AB069E0C62ED12CE12CF12CA896EFAEA897A4
S1131AC0A796AEADBFADA797ED91FD91A796BFAF19
S1131AD0AEAFA7979081A596EEADFFADA597819186
S1131AE0A596FFAFEEAFA597892309F047C08E2DC9
S1131AF00E94C301D5019C91923010F09330E9F417
S1131B0083FD3CC020E4F2012083D1014C91406468
S1131B1061E0C701880F991F80670E94F20162E0AB
S1131B20A8968FADA8970E941B02F501908268ECDD
S1131B3070E08C2D0E94010321C09230F9F487FDDE
S1131B401DC08E2D0E940D0264E08E2D0E941B028A
S1131B50D3018C9221E0F501208360E070E08C2DAC
S1131B600E940103F601EE0FFF1FEC0DFD1DEE5E5A
S1131B70FD4F8281811102C031E032838FEFE81A78
S1131B80F80A9FEFC91AD90AAFEF4A1A5A0ABFEFE7
S1131B902B1A3B0AEFEFAE1ABE0AFFEF6F1A7F0A49
S1131BA026E0E216F10409F088CF69CD80914B025A
S1131BB0882309F414CFFFB6F8946DCDF999FECFBC
S1131BC092BD81BDF89A992780B5089509D0A59F43
S1131BD0900DB49F900DA49F800D911D1124089524
S1131BE0A29FB001B39FC001A39F700D811D11245A
S1131BF0911DB29F700D811D1124911D0895991B93
S1131C0079E004C0991F961708F0961B881F7A95EF
S1131C10C9F780950895AA1BBB1B51E107C0AA1FF1
S1131C20BB1FA617B70710F0A61BB70B881F991F79
S1131C305A95A9F780959095BC01CD01089597FB1D
S1131C40072E16F4009406D077FD08D0E4DF07FCD5
S1131C5005D03EF4909581959F4F089570956195B8
S1131C607F4F08952F923F924F925F926F927F928F
S1131C708F929F92AF92BF92CF92DF92EF92FF9298
S1131C800F931F93CF93DF93CDB7DEB7CA1BDB0B44
S1131C900FB6F894DEBF0FBECDBF09942A883988E9
S1131CA048885F846E847D848C849B84AA84B984F0
S1131CB0C884DF80EE80FD800C811B81AA81B981FC
S1131CC0CE0FD11D0FB6F894DEBF0FBECDBFED0110
S1131CD00895DC0101C06D9341505040E0F7089530
S1071CE0F894FFCFA2
S1131CE4017DFF800080C0E0F0F8FCFE280028009D
S1131CF425002500250025002500310027002700A4
S1131D0424002400240024002400300040804020C7
S1131D1404088080260026002300230023002300D7
S1131D2423002F000103070F1F3F7FFFFFFEFCF872
S1131D34F0E0C08000000876312E325F6D696E6970
S1051D44000099
S9030000FC
